:020000040800F2
:1000000000000520F9190008151900081719000843
:10001000191900081B1900081D190008000000002C
:1000200000000000000000000000000091790008BE
:100030001F19000800000000317A0008957A0008B6
:10004000491A0008491A0008491A0008491A000804
:10005000491A0008491A0008491A0008491A0008F4
:10006000491A0008491A0008491A0008491A0008E4
:10007000491A0008491A0008491A0008491A0008D4
:10008000491A0008491A0008491A0008491A0008C4
:10009000491A0008491A0008491A0008491A0008B4
:1000A000491A0008491A0008491A0008491A0008A4
:1000B000491A0008491A0008491A0008491A000894
:1000C000491A0008491A0008491A0008491A000884
:1000D000491A0008491A0008491A0008491A000874
:1000E000491A0008491A0008491A0008491A000864
:1000F000491A0008491A0008491A0008491A000854
:10010000491A0008491A0008491A0008491A000843
:10011000491A0008491A000821190008491A00085C
:10012000491A0008491A0008491A0008491A000823
:10013000491A0008491A0008491A0008491A000813
:10014000491A0008491A0008491A0008491A000803
:10015000491A0008491A0008491A0008491A0008F3
:10016000491A0008491A0008491A0008491A0008E3
:10017000491A0008491A0008491A0008000000003E
:10018000491A0008491A0008491A0008491A0008C3
:10019000491A0008491A0008491A0008491A0008B3
:1001A0002D190008491A000839190008491A0008D1
:1001B000491A0008491A0008491A0008491A000893
:0801C000491A0008491A000861
:1001D00010B5054C237833B9044B13B10448AFF381
:1001E00000800123237010BD2401002000000000C6
:1001F00098C8020808B5034B1BB103490348AFF385
:10020000008008BD000000002801002098C80208F6
:1002100001F0FF01102A2BDB10F0070F08D010F8B7
:10022000013B013A8B422DD010F0070F42B3F6D1BB
:10023000F0B441EA012141EA014122F007047FF0D4
:1002400000070023F0E80256083C85EA010586EA2B
:10025000010685FA47F5A3FA87F586FA47F6A5FA67
:1002600087F68EB9EED1F0BC01F0FF0102F0070273
:1002700032B110F8013B013A83EA010313B1F8D11E
:100280000020704701387047002D06BF35460338FF
:10029000073815F0010F07D1013015F4807F02BF38
:1002A000013015F4C03F0130F0BC0138704700BF89
:1002B00081F0004102E000BF83F0004330B54FEA17
:1002C00041044FEA430594EA050F08BF90EA020F84
:1002D0001FBF54EA000C55EA020C7FEA645C7FEA17
:1002E000655C00F0E2804FEA5454D4EB5555B8BF3A
:1002F0006D420CDD2C4480EA020281EA030382EAAB
:10030000000083EA010180EA020281EA0303362D3C
:1003100088BF30BD11F0004F4FEA01314FF4801C0F
:100320004CEA113102D0404261EB410113F0004F21
:100330004FEA03334CEA133302D0524263EB4303D8
:1003400094EA050F00F0A780A4F10104D5F1200E76
:100350000DDB02FA0EFC22FA05F2801841F10001D1
:1003600003FA0EF2801843FA05F359410EE0A5F1A5
:1003700020050EF1200E012A03FA0EFC28BF4CF0D6
:10038000020C43FA05F3C01851EBE37101F000458C
:1003900007D54FF0000EDCF1000C7EEB00006EEB99
:1003A0000101B1F5801F1BD3B1F5001F0CD3490823
:1003B0005FEA30004FEA3C0C04F101044FEA44527A
:1003C00012F5800F80F09A80BCF1004F08BF5FEA01
:1003D000500C50F1000041EB045141EA050130BDE1
:1003E0005FEA4C0C404141EB0101013C28BFB1F5F3
:1003F000801FE9D291F0000F04BF01460020B1FA3E
:1004000081F308BF2033A3F10B03B3F120020CDA10
:100410000C3208DD02F1140CC2F10C0201FA0CF0EE
:1004200021FA02F10CE002F11402D8BFC2F1200C53
:1004300001FA02F120FA0CFCDCBF41EA0C01904009
:10044000E41AA2BF01EB0451294330BD6FEA040452
:100450001F3C1CDA0C340EDC04F11404C4F120023D
:1004600020FA04F001FA02F340EA030021FA04F34F
:1004700045EA030130BDC4F10C04C4F1200220FAA6
:1004800002F001FA04F340EA0300294630BD21FAE4
:1004900004F0294630BD94F0000F83F4801306BFAA
:1004A00081F480110134013D4EE77FEA645C18BF9E
:1004B0007FEA655C29D094EA050F08BF90EA020F35
:1004C00005D054EA000C04BF1946104630BD91EA2D
:1004D000030F1EBF0021002030BD5FEA545C05D130
:1004E0004000494128BF41F0004130BD14F580046F
:1004F0003CBF01F5801130BD01F0004545F0FE41E3
:1005000041F470014FF0000030BD7FEA645C1ABF17
:10051000194610467FEA655C1CBF0B46024650EA4E
:10052000013406BF52EA033591EA030F41F400217A
:1005300030BD00BF90F0000F04BF0021704730B500
:100540004FF4806404F132044FF000054FF00001D5
:1005500050E700BF90F0000F04BF0021704730B596
:100560004FF4806404F1320410F0004548BF40426B
:100570004FF000013EE700BF42004FEAE2014FEAC0
:1005800031014FEA02701FBF12F07F4393F07F4F9B
:1005900081F06051704732F07F4208BF704793F09E
:1005A0007F4F04BF41F40021704730B54FF46074B1
:1005B00001F0004521F000411CE700BF50EA0102B4
:1005C00008BF704730B54FF000050AE050EA01025D
:1005D00008BF704730B511F0004502D5404261EBCD
:1005E00041014FF4806404F132045FEA915C3FF40E
:1005F000D8AE4FF003025FEADC0C18BF03325FEAAB
:10060000DC0C18BF033202EBDC02C2F1200300FA5B
:1006100003FC20FA02F001FA03FE40EA0E0021FA80
:1006200002F11444BDE600BF70B54FF0FF0C4CF46E
:10063000E06C1CEA11541DBF1CEA135594EA0C0F20
:1006400095EA0C0F00F0DEF82C4481EA030621EA5B
:100650004C5123EA4C5350EA013518BF52EA033596
:1006600041F4801143F4801338D0A0FB02CE4FF048
:100670000005E1FB02E506F00042E0FB03E54FF078
:100680000006E1FB03569CF0000F18BF4EF0010E70
:10069000A4F1FF04B6F5007F64F5407404D25FEA6C
:1006A0004E0E6D4146EB060642EAC62141EA55511F
:1006B0004FEAC52040EA5E504FEACE2EB4F1FD0C61
:1006C00088BFBCF5E06F1ED8BEF1004F08BF5FEADF
:1006D000500E50F1000041EB045170BD06F0004691
:1006E00046EA010140EA020081EA0301B4EB5C043E
:1006F000C2BFD4EB0C0541EA045170BD41F4801136
:100700004FF0000E013C00F3AB8014F1360FDEBF5A
:10071000002001F0004170BDC4F10004203C35DA36
:100720000C341BDC04F11404C4F1200500FA05F3B9
:1007300020FA04F001FA05F240EA020001F000425A
:1007400021F0004110EBD37021FA04F642EB0601D0
:100750005EEA430E08BF20EAD37070BDC4F10C04FA
:10076000C4F1200500FA04F320FA05F001FA04F2BE
:1007700040EA020001F0004110EBD37041F10001AA
:100780005EEA430E08BF20EAD37070BDC4F12005B5
:1007900000FA05F24EEA020E20FA04F301FA05F21D
:1007A00043EA020321FA04F001F0004121FA04F2C5
:1007B00020EA020000EBD3705EEA430E08BF20EA95
:1007C000D37070BD94F0000F0FD101F000464000CF
:1007D00041EB010111F4801F08BF013CF7D041EA51
:1007E000060195F0000F18BF704703F00046520055
:1007F00043EB030313F4801F08BF013DF7D043EA26
:100800000603704794EA0C0F0CEA135518BF95EADB
:100810000C0F0CD050EA410618BF52EA4306D1D162
:1008200081EA030101F000414FF0000070BD50EA81
:10083000410606BF1046194652EA430619D094EA0B
:100840000C0F02D150EA013613D195EA0C0F05D1F5
:1008500052EA03361CBF104619460AD181EA030149
:1008600001F0004141F0FE4141F470014FF0000001
:1008700070BD41F0FE4141F4780170BD70B54FF09C
:10088000FF0C4CF4E06C1CEA11541DBF1CEA13551C
:1008900094EA0C0F95EA0C0F00F0A7F8A4EB0504FE
:1008A00081EA030E52EA03354FEA013100F08880F5
:1008B0004FEA03334FF0805545EA131343EA1263BE
:1008C0004FEA022245EA111545EA10654FEA002673
:1008D0000EF000419D4208BF964244F1FD0404F52C
:1008E000407402D25B084FEA3202B61A65EB030588
:1008F0005B084FEA32024FF480104FF4002CB6EB45
:10090000020E75EB030E22BFB61A754640EA0C00C4
:100910005B084FEA3202B6EB020E75EB030E22BF04
:10092000B61A754640EA5C005B084FEA3202B6EB45
:10093000020E75EB030E22BFB61A754640EA9C0004
:100940005B084FEA3202B6EB020E75EB030E22BFD4
:10095000B61A754640EADC0055EA060E18D04FEA92
:10096000051545EA16754FEA06164FEAC30343EA32
:1009700052734FEAC2025FEA1C1CC0D111F4801FFF
:100980000BD141EA00014FF000004FF0004CB6E7F8
:1009900011F4801F04BF01430020B4F1FD0C88BF97
:1009A000BCF5E06F3FF6AFAEB5EB030C04BFB6EBA2
:1009B000020C5FEA500C50F1000041EB045170BD95
:1009C0000EF0004E4EEA113114EB5C04C2BFD4EBC2
:1009D0000C0541EA045170BD41F480114FF0000E46
:1009E000013C90E645EA060E8DE60CEA135594EAC2
:1009F0000C0F08BF95EA0C0F3FF43BAF94EA0C0FC5
:100A00000AD150EA01347FF434AF95EA0C0F7FF439
:100A100025AF104619462CE795EA0C0F06D152EA8D
:100A200003353FF4FDAE1046194622E750EA410671
:100A300018BF52EA43067FF4C5AE50EA41047FF482
:100A40000DAF52EA43057FF4EBAE12E74FEA4102E5
:100A5000B2F1E04324BFB3F5001CDCF1FE5C0DD91C
:100A600001F0004C4FEAC0024CEA5070B2F1004F66
:100A700040EB830008BF20F00100704711F0804F69
:100A800021D113F13872BCBF01F00040704741F42E
:100A900080114FEA5252C2F11802C2F1200C10FA32
:100AA0000CF320FA02F018BF40F001004FEAC12316
:100AB0004FEAD32303FA0CFC40EA0C0023FA02F3BA
:100AC0004FEA4303CCE77FEA625307D150EA013390
:100AD0001EBF4FF0FE4040F44000704701F0004060
:100AE00040F0FE4040F40000704700BF53B94AB9DF
:100AF000002908BF00281CBF4FF0FF314FF0FF3026
:100B000000F074B9ADF1080C6DE904CE00F006F800
:100B1000DDF804E0DDE9022304B070472DE9F04779
:100B2000089D04468E46002B4DD18A42944669D9D1
:100B3000B2FA82F252B101FA02F3C2F1200120FAB4
:100B400001F10CFA02FC41EA030E94404FEA1C4802
:100B5000210CBEFBF8F61FFA8CF708FB16E341EAFE
:100B6000034306FB07F199420AD91CEB030306F184
:100B7000FF3080F01F81994240F21C81023E6344A5
:100B80005B1AA4B2B3FBF8F008FB103344EA034449
:100B900000FB07F7A7420AD91CEB040400F1FF335E
:100BA00080F00A81A74240F207816444023840EA9B
:100BB0000640E41B00261DB1D4400023C5E90043D4
:100BC0003146BDE8F0878B4209D9002D00F0EF8057
:100BD0000026C5E9000130463146BDE8F087B3FA8A
:100BE00083F6002E4AD18B4202D3824200F2F98072
:100BF000841A61EB030301209E46002DE0D0C5E975
:100C0000004EDDE702B9FFDEB2FA82F2002A40F0C0
:100C10009280A1EB0C014FEA1C471FFA8CFE0126C3
:100C2000200CB1FBF7F307FB131140EA01410EFB67
:100C300003F0884208D91CEB010103F1FF3802D20E
:100C4000884200F2CB804346091AA4B2B1FBF7F008
:100C500007FB101144EA01440EFB00FEA64508D92B
:100C60001CEB040400F1FF3102D2A64500F2BB8068
:100C70000846A4EB0E0440EA03409CE7C6F12007B7
:100C8000B34022FA07FC4CEA030C20FA07F401FAFD
:100C900006F31C43F9404FEA1C4900FA06F3B1FB86
:100CA000F9F8200C1FFA8CFE09FB181140EA0141EB
:100CB00008FB0EF0884202FA06F20BD91CEB010188
:100CC00008F1FF3A80F08880884240F28580A8F1E0
:100CD00002086144091AA4B2B1FBF9F009FB101132
:100CE00044EA014100FB0EFE8E4508D91CEB0101D0
:100CF00000F1FF346CD28E456AD90238614440EA73
:100D00000840A0FB0294A1EB0E01A142C846A646F2
:100D100056D353D05DB1B3EB080261EB0E0101FA7B
:100D200007F722FA06F3F1401F43C5E900710026D8
:100D30003146BDE8F087C2F12003D8400CFA02FC2E
:100D400021FA03F3914001434FEA1C471FFA8CFE3E
:100D5000B3FBF7F007FB10360B0C43EA064300FB2E
:100D60000EF69E4204FA02F408D91CEB030300F1CC
:100D7000FF382FD29E422DD9023863449B1B89B283
:100D8000B3FBF7F607FB163341EA034106FB0EF30C
:100D90008B4208D91CEB010106F1FF3816D28B42B9
:100DA00014D9023E6144C91A46EA004638E72E4685
:100DB000284605E70646E3E61846F8E64B45A9D27D
:100DC000B9EB020864EB0C0E0138A3E74646EAE7EC
:100DD000204694E74046D1E7D0467BE7023B61449A
:100DE00032E7304609E76444023842E7704700BF03
:100DF0000149002007F0E0BFF91E000808B5642093
:100E000006F0DCF9FBE70000074C084D08B50023AD
:100E1000054928681A4607F09EF8236864200133C4
:100E2000236006F0CBF9F2E73C030020DC3B002016
:100E300010B594B01022002102240AA82AF02CFB3D
:100E40001422002103A82AF027FB1D4B192108A812
:100E50001A6C42F080521A641B6C03F080530193A9
:100E6000019B184B1A6842F440421A6001221B6829
:100E700003F440430293029B4FF48033CDE90823EF
:100E80004FF48003CDE90E434FF4D873CDE91244FB
:100E9000CDE9101305F050F904F0FCFD0F230020FC
:100EA0000721CDE903344FF4A053CDE905034FF4F6
:100EB000805303A8079305F02BFB14B010BD00BFAF
:100EC00000380240007000402DE980489BB010229D
:100ED000002101250DA84FF010492AF0DDFA002469
:100EE00003F02CFDC64B0DA8ADF834501094CDE99D
:100EF0000E9303F041FD17230DA88DF835508DF8A2
:100F00003C308DF8425003F037FD042003F024FDFF
:100F1000BFF34F8FBFF36F8FBA4AC2F85042BFF38F
:100F20004F8FBFF36F8F536943F400335361BFF3A7
:100F30004F8FBFF36F8FC2F88440BFF34F8FD2F84B
:100F4000803043F6E074C3F3C900C3F34E335B0152
:100F500003EA0406014646EA81750139C2F8605287
:100F6000F9D2203B13F1200FF2D1BFF34F8F536919
:100F700043F480335361BFF34F8FBFF36F8F03F0A0
:100F800041FC0024FFF754FF142200210DA82AF091
:100F900083FA9D4B10219D481A6B01274FF01008D2
:100FA0004FF0030B42F010024FF4805A984D4FF06F
:100FB00004091A631A6B974E02F010020292029A09
:100FC0001A6B42F002021A631A6B02F002020392D9
:100FD000039A1A6B42F001021A631A6B02F00102C3
:100FE0000492049A1A6B42F040021A631A6B02F0E0
:100FF00040020592059A1A6B42F400721A631A6B4A
:1010000002F400720692069A1A6B42F008021A6302
:101010001A6B02F008020792079A1A6B42F4806278
:101020001A631A6B02F480620892089A1A6B42F0F3
:1010300020021A631A6B02F020020992099A1A6BB5
:1010400042F480721A631A6B02F480720A920A9A4E
:101050001A6B42F080021A631A6B02F080020B9244
:101060000B9A1A6B42F004021A6300221B6B03F006
:1010700004030C930C9B03F0D9FF0122082166485E
:1010800003F0D4FF01224FF48051644803F0CEFFF7
:101090000022C021624803F0C9FF002240216148BC
:1010A00003F0C4FF0DA95948CDE90D87CDE90F4BD9
:1010B00003F030FE08230DA95748CDE90D37CDE9DF
:1010C0000F4403F027FE0DA95448CDE90DA7CDE943
:1010D0000F4403F01FFEC0220DA95148CDE90D2792
:1010E000CDE90F4B03F016FE40220DA94D48CDE986
:1010F0000D27CDE90F4B03F00DFE4B484B49848083
:1011000001600762C0E9054403F062FC48492846D3
:10111000C5E90A44C5E90C44C5E90014C5E902441F
:1011200003F0F8FC39462846424D03F0ABFD40235E
:101130004FF4C07240493046B460F461B462C6E90D
:1011400005324FF40062C6E9082A4FF0020A07226E
:10115000C6E900140DA9CDF84CA0C6E90398CDE965
:101160000DA2CDE90F92CDE911BA05F027FD294670
:101170004FF6FF7230460194C5E90078C5E9027464
:1011800005F03CFD384603F061FB29464FF6FF723F
:101190003046C5E900A8C5E9027405F02FFD082313
:1011A00029464FF6FF723046C5E900B8C5E902345A
:1011B00005F024FD4FF40C734FF6FF72294601939E
:1011C0003046019BAF60EB60C5E9009805F016FD65
:1011D00040F22B713046194D05F02FFD4FF02043A2
:1011E00043F2D202284640F215261A60144B154AE3
:1011F0002C62C5E90023C5E90247C5E9044423E0A0
:101200001B00000300ED00E0003802400004024033
:101210007C0100200403002000280240002002403E
:10122000000802400018024058010020003002402F
:1012300000B0024040010020400100A0BC0100209D
:1012400068474020005C0040C5E9064404F017F8F8
:101250002146284604F036FA21462846424D04F03D
:1012600057FA342221460DEB02002AF015F93F4BC4
:101270002821352040F2352CAC862C6185F836408B
:10128000C5E900340923C5E905130B23C5E90703A4
:1012900040F21B132846C5E9096340F21D13C5E956
:1012A0000244C5E90BC304F0DFFAFF214FF4806E5E
:1012B0004FF4F0724FF4887328460D941893ADF8EC
:1012C00064408DF86640CDE912140521CDE914E1A2
:1012D0004FF04041CDE90E24CDE9161222460DA96A
:1012E000CDE9103A04F08BFB2148224B0462C0E99F
:1012F0000037C0E902984FF4A0634FF01808C0E926
:101300000644C0E9048304F0D5FC03F0F9F803F0C7
:101310003DF85C2003F0FEFA00F06CFB00F096FB59
:1013200000F093FB05F0BAFE134A2146134805F07E
:10133000EFFE134B134A21461860134805F0E8FEF0
:10134000124B134A21461860124805F0E1FE124B79
:10135000124A21461860124805F0DAFE114B186057
:1013600005F0B6FEFEE700BF100200200068014055
:10137000B8020020001000A044C90208FD0D0008BA
:101380005401002020C902085B1A00085001002007
:101390008CC90208F93300084003002068C902081C
:1013A000090E0008380300200268034B9A4201D15D
:1013B00003F03ABA704700BF0010004070470000C9
:1013C0000D4B82B00F216FF001001A6C42F0805279
:1013D0001A641A6C02F080520092009A5A6C42F41D
:1013E00080425A6400225B6C03F480430193019BAA
:1013F00002B003F04FBA00BF00380240026882B06A
:10140000084B9A420BD1D3F8302803F5006342F41D
:1014100080521A631B6B03F480530193019B02B04B
:10142000704700BF003002400E4B07B502689A4279
:1014300015D1A3F5F04305215A201A6B42F400029E
:101440001A6300221B6B03F400030193019B03F05A
:1014500021FA5A2003B05DF804EB03F04DBA03B053
:101460005DF804FB00B0024010B5A8B00446142299
:10147000002102A82AF010F88422002107A82AF0EF
:101480000BF82268174B9A422AD14FF4803307A8F1
:10149000079305F00BF908B1FFF790FF124C4FF4DA
:1014A000C07201211148236B43F080032363236B37
:1014B00003F080030093009B1223CDE90223032352
:1014C000CDE90413042302A9069303F023FC236C43
:1014D00043F400032364236C03F400030193019B92
:1014E00028B010BD005C004000380240001C0240E3
:1014F000026808B5094B9A420FD1094A8021094870
:10150000136C23F40003136403F0E8FC4FF48071C0
:101510000448BDE8084003F0E1BC08BD005C0040A1
:1015200000380240001C024070B5ACB004461422E2
:10153000002106A829F0B0FF842200210BA829F081
:10154000ABFF2268484B9A4240F08C80082305206C
:1015500001240B934FF4C07310930223CDE9113093
:101560004FF400330BA8CDE9154305F09FF808B1FF
:10157000FFF724FF3D4B002402250E265A6C06A9D6
:101580003B4842F080625A645A6C02F080620092DA
:10159000009A1A6B42F010021A631A6B02F01002E2
:1015A0000192019A1A6B42F400721A631A6B02F4E8
:1015B00000720292029A1A6B42F480621A631A6BEA
:1015C00002F480620392039A1A6B42F040021A639B
:1015D0001A6B02F040020492049A1A6B42F4807271
:1015E0001A631B6B03F480730593059B1023CDE9ED
:1015F0000635CDE908440A9603F08CFB4EF6FF73DE
:1016000006A91C480A96CDE90635CDE9084403F041
:1016100081FBF72306A918480A96CDE90635CDE9DE
:10162000084403F077FB4FF4805306A91348CDE933
:1016300006350923CDE908440A9303F06BFB4FF408
:10164000464306A90E480A96CDE90635CDE9084479
:1016500003F060FB58202246052103F01BF95820B7
:1016600003F04AF92CB070BD006801400038024018
:1016700000100240002402400028024000180240EE
:1016800000200240142200212DE9F0418AB00446D6
:101690000DEB020029F000FF22682C4B9A4251D139
:1016A0002B4B0225032409269A6B4FF0040805A949
:1016B000284842F0020200279A639A6B02F0020265
:1016C0000192019A1A6B42F010021A631A6B02F02F
:1016D00010020292029A1A6B42F002021A631A6B0B
:1016E00002F002020392039A1A6B42F008021A6394
:1016F0001B6B03F008030493049BCDE90585CDE93A
:10170000084603F007FB402305A91348CDE905353A
:101710000A23CDE90774099303F0FCFA05A90E48E2
:101720000996CDE90585CDE9077403F0F3FA4FF486
:10173000605305A909480996CDE90535CDE9077437
:1017400003F0E8FA0AB0BDE8F08100BF001000A085
:10175000003802400010024000040240000C024029
:10176000026808B50B4B9A4213D10B4A04210B486F
:10177000936B23F00203936303F0B0FB442108480A
:1017800003F0ACFB4FF460510648BDE8084003F09D
:10179000A5BB08BD001000A00038024000100240A8
:1017A00000040240000C0240F0B5002387B0039310
:1017B000294B1E68002E4DD10122022703250C243F
:1017C0001A6001A9254B26489A6B42F001029A63E0
:1017D0009B6B03F001030093009B4FF68373CDE9ED
:1017E0000454CDE9013703F095FA48F2331301A907
:1017F0001C480594CDE90137CDE9036503F08AFA69
:101800004CF2037301A918480594CDE90137CDE9DD
:10181000036503F07FFA4FF63F0301A913480594CF
:10182000CDE90137CDE9036503F074FA282301A956
:101830000F480594CDE90137CDE9036503F06AFA55
:10184000082301A90B480594CDE90137CDE90365CB
:1018500003F060FA07B0F0BD4403002000380240F6
:101860000010024000180240000C02400014024028
:10187000001C024000080240214B1A6C42F010028A
:1018800070B51A6488B01B6C054601A903A803F063
:1018900010030293029B04F0EBFE069B4BBB04F08B
:1018A000D7FE184E184B336040F2E733F360174B06
:1018B000B0FBF3F3013B3046736000233361B36048
:1018C000B36105F02BFB044680B9304605F0CEF934
:1018D000044658B9362003F00FF80F2D0DD82246D4
:1018E0002946362002F0D6FF094B1D60204608B07D
:1018F00070BD04F0ADFE4000D3E70124F6E700BF61
:1019000000380240480300200010004040420F0011
:101910003C0000207047FEE7FEE7FEE7FEE7704769
:10192000014805F0E5B900BF48030020014804F074
:1019300009B800BF10020020014803F019B900BF28
:101940007C0100200120704708B529F047FD1623CF
:1019500003604FF0FF3008BD08B529F03FFD1623A6
:101960000360FEE770B50D4614460E46731B9C429D
:1019700001DC204670BDAFF3008006F8010BF5E7EF
:1019800070B50D4614460E46731B9C4201DC204682
:1019900070BD16F8010BAFF30080F5E74FF0FF3094
:1019A00070474FF4005300204B6070470120704790
:1019B000002070470B4A0346116810B509B90A495F
:1019C0001160106809490A4C0344091B8B4206D96F
:1019D00029F004FD0C2303604FF0FF3010BD1360AD
:1019E000FCE700BF940300203871012000000520AF
:1019F000000A000070470000DFF834D0002103E047
:101A00000C4B5B58435004310B480C4B42189A4224
:101A1000F6D30B4A02E0002342F8043B094B9A42FA
:101A2000F9D302F005FE29F0F1FCFFF74DFA7047FB
:101A300000000520C017030800000020240100203A
:101A40002401002034710120FEE7704708B501F041
:101A50002DF9BDE8084001F0B5B801F029B940689A
:101A600070474160704700004FF0E022D2F8FC3D23
:101A700043F08073C2F8FC3D054B064AD3F8B01F13
:101A80000A43C3F8B02F1A6842F001021A60704787
:101A9000001000E055CEACC5511A01EB5301B1FB6B
:101AA000F3F07047014B5868704700BF001000E02A
:101AB000704710B504460C2129F02FFC204610BDBC
:101AC000036810B51B69044631B19847A268636882
:101AD0009B1A1844606010BD9847A060FBE70000A7
:101AE000024B7020024A1360DB6818471000002088
:101AF00098030020704710B50446042129F00DFC1E
:101B0000204610BD73B50E4E0D461446336813B90A
:101B1000002002B070BD1B69702098470028F7D0E4
:101B20003368702001AA0DF106015B699847BDF882
:101B3000043001202B60BDF806302360E9E700BFC8
:101B4000980300207FB501238DF817204FF47A7297
:101B5000CDE901320DF1170200920A46014605480F
:101B600003F0F8FB10B1034803F0DAFB07B05DF8AF
:101B700004FB00BFBC0100207FB500230A464FF4E0
:101B80007A718DF817300123CDE901310DF117017C
:101B900000910146054803F0B7FC10B1034803F07B
:101BA000BFFB9DF8170007B05DF804FBBC010020E7
:101BB000032823D8DFE800F0020B131A104B102182
:101BC00010481A68B2FA82F2520903F02FBA0C4B8D
:101BD00040215A68B2FA82F252090B48F5E7084BE5
:101BE00080219A68B2FA82F25209F6E7044B40214A
:101BF0000648DA68B2FA82F25209E6E7704700BF97
:101C00009C0300200004024000080240001802402B
:101C1000032823D8DFE800F0020B131A104B102121
:101C200010481A68003A18BF012203F0FFB90C4BA4
:101C300040215A68003A18BF01220B48F5E7084BCB
:101C400080219A68003A18BF0122F6E7044B402130
:101C50000648DA68003A18BF0122E6E7704700BF7D
:101C60009C030020000402400008024000180240CB
:101C700003280FD8DFE800F00206090B1021064800
:101C800003F0D9B940210548FAE78021FBE740215C
:101C90000348F5E7704700BF000402400008024017
:101CA0000018024008B5032813D8DFE800F0020A44
:101CB0000D0F1021084803F0B3F9431E5842584154
:101CC00008BD40210548F6E78021FBE74021044894
:101CD000F1E70020F1E700BF0004024000080240E5
:101CE0000018024070B5084D00240126E0B2FFF74D
:101CF000D9FF18B12B68012B18BF2E6001340435B1
:101D0000052CF3D170BD00BF9C030020012380F897
:101D1000741080F8753070470020704741640039B6
:101D2000024B18BF01211970704700BF876E012058
:101D300000207047836B0BB10846184770474FF679
:101D4000FF707047406803689B6918477047000040
:101D500038B5044601F0D4F823682046D3F88850FB
:101D6000074BD4E90F12A8470023064D84F84A30E8
:101D70002846FFF779FE0123256184F86C3038BDD1
:101D8000000000C0AC03002001F070B801F074B88E
:101D900070B501F0E7F810490023C1F88430BFF3B3
:101DA0004F8FD1F8803043F6E074C3F3C900C3F31A
:101DB0004E335B0103EA0406024646EA8275013AA5
:101DC000C1F87452F9D2203B13F1200FF2D1BFF3C6
:101DD0004F8FBFF36F8F70BD00ED00E001F0C4B80E
:101DE00001F020B801F0DEB901F0E6B901F024B845
:101DF00010B5044616F0B2F823682046D3F8AC308C
:101E0000BDE81040184715F001BB10B504467C2111
:101E100029F083FA204610BD90F877301BB1406856
:101E200003681B68184718467047000090F8341084
:101E30000D4B10B590F874401A788C4209D03AB91D
:101E40000A490B4A08881488108001220C801A70F5
:101E500010BD002AFCD0064A0449148808880C806A
:101E600010800022F3E700BF806E01207E6E01200B
:101E70007C6E012070B50D46194635B9094B40F20C
:101E8000D221094A094829F077FAC0E90F52003AED
:101E9000074B18BF01221A700368BDE87040D3F8E1
:101EA0008C301847F0C9020828CA020876CA02080E
:101EB000866E012008B5094B1B888B4203D8084B5E
:101EC0001B88934205D9074B9E21074A074829F0F2
:101ED00053FA074B1980074B1A8008BD7C6E01200E
:101EE0007E6E0120BBCA02081ECB020876CA020819
:101EF000826E0120846E0120014608B5034B1868EC
:101F000001B1012116F044F8012008BD886E0120BE
:101F1000034B00225A609A60024A1A60704700BF61
:101F2000AC030020B8C902080121002208B5084608
:101F300005F0FAF90A4B186028B90A4B28210A4A19
:101F40000A4829F019FA00220421012005F0B2FA0A
:101F5000074B186018B9074B2C21034AF0E708BD5E
:101F6000BC0300203CCC020885CC0208B4CC02089B
:101F7000B8030020FDCC0208024B4FF0FF31186877
:101F800005F028BABC030020014B186805F05CBAC4
:101F9000BC030020024B0021186805F01BBA00BFEB
:101FA000BC030020FFF7F0BF0023034803491A4693
:101FB000006805F0C5BA00BFB80300200400002087
:101FC00013B50023074C01A91A46206805F0FAFA58
:101FD0004FF0FF33002201A9206805F0F3FA02B0A8
:101FE00010BD00BFB803002003685B6C18470120D8
:101FF000704703689B6A18470D4B82B01A6B42F416
:1020000000021A631A6B02F400020192019A1A6923
:1020100042F400021A611A6922F400021A61054BA7
:10202000054A1A614FF08062044B9A6002B0704713
:10203000003802407C0100208120000800E100E01F
:1020400040F2EF3070470000054B4FF080620360B4
:10205000044BC3F88820BFF34F8FBFF36F8F7047D7
:1020600098CE020800E100E010B504464FF45A6132
:10207000FFF7EAFF204629F050F9204610BD000086
:10208000024B1B68586803685B691847886E01201B
:1020900070B504460A4B0C3000262546602260606D
:1020A0002672667245F8203B294616F0C5F804F5FD
:1020B0005A63EE602435AB42FBD1204670BD00BFB1
:1020C00098CE020808B50B290BD8DFE801F01206FC
:1020D000100A0A0A0A0808080808012008BD052095
:1020E000FCE7054B6621054A054829F045F9002023
:1020F000F4E70220F2E700BF3FCD02085ACD020804
:10210000A4CD020808B50A2909D8DFE801F01006B5
:102110000E080808080606060600012008BD054B43
:102120008721054A054829F027F90020F6E7022013
:10213000F4E700BF3FCD0208EBCD0208A4CD0208B2
:102140002DE9F8434F7F0C4681463946FFF7BAFF29
:1021500094F81E80054648464146FFF7B3FF4146C6
:1021600006464846FFF7CEFFA18A628B424B521AC1
:102170001A649A61228B521A1A61E28A586342EAFF
:10218000014220695A646268D863DA60216894F871
:102190001CC080294FEA0C6226D010D8202945EABD
:1021A000020462D0402960D004295ED02A43324B19
:1021B000474542F40032DA615BD0304A40E0B1F585
:1021C000807F07D0B1F5007FF0D142F4003242F0B9
:1021D000090203E042F4003242F00A02DA61E268E6
:1021E0001A625E6258612AE0A4682A43211D42F403
:1021F0000032D962DA6122785E62586142B1012A06
:1022000021D01F4B40F211111E4A1F4829F0B4F88B
:10221000DA690120618822F47F42013922F010023C
:1022200042EA0122DA61144BDA6942F02002DA61F3
:10223000DA699206FCD410229A600028BDD0134AB5
:102240001A60BDE8F8836288BCF1FF00D96902F129
:10225000FF3418BF012021F47F4222F0100242EA2D
:10226000042242F01002DA61DDE744F40034DC615C
:10227000B7E740F20122E3E700B0024001020100AB
:1022800036CE020850CE0208A4CD02080102020098
:1022900070B50C46897FFFF735FF174BA68AE18A98
:1022A000628B41EA06412569921B58635964DD63DC
:1022B0001A642668E168082E0DD19A611A61586285
:1022C0000E4A207F42EA0062DA610D4A19625D61BE
:1022D000DD601A6070BD0022D86148091A610A0ADF
:1022E00000F4FC60C1F3C40102F4784202430A43E3
:1022F0009A63044AEDE700BF00B002400900010004
:102300000102020001020300034B1A68D207FCD449
:1023100023229A60704700BF00B0024030B5104CD5
:102320002568ED07FCD423250904FF2BA56041F0A7
:1023300001014FF0020565636164E0630AD0094959
:10234000656241EA0363E361074B22626061E0601A
:10235000236030BDE561039BA363044BF8E700BF36
:1023600000B002400900010001000200010003006A
:102370004069704790F844007047036B23B9C06A06
:10238000003818BF012070470120704780687047EF
:10239000043010B50C460FC884E80F0010BD70471C
:1023A00008B5034A40F20F21024B034828F0E4FF2E
:1023B000E0CE020853E902083BCF020810B50446FC
:1023C000482128F0AAFF204610BD00002DE9F04367
:1023D0001C46436BADF51F7D05460E461746002B88
:1023E00052D0002203A8DFF8A890CDE901320DF009
:1023F00071FA4FF4F4725021249024A807F08BF95D
:102400003A46314624A808F01FF9012124A807F014
:102410008BFA022324A88DF8D83007F029FBBDF8E9
:1024200098622B9BBDF89C729E4228BF1E46419B22
:102430009F4206EB460828BF1F46A89BA3EB460613
:10244000479B9F421AD9012201A924A807F059FBF2
:102450006B6B03EB080098420ED959789A78C90043
:1024600009EA022201F4FC610A4313F8031B42EA61
:10247000D10224F8022BEEE73444E1E724A807F068
:1024800075FA24A807F094F90DF51F7DBDE8F083D7
:1024900000F8FFFF0A4A02600022C0E90522C0E9F5
:1024A0000722C0E90922C0E90B22C0E90D12C0E9E8
:1024B0000F2280F84420C0E90322C0E901227047BE
:1024C00018D2020820B40D4611461A46036B3BB1E0
:1024D000036C806BED1A28445DF8045B29F026BC80
:1024E000C06AF8E7036B10B573B1036C826BC91A4D
:1024F0005318525C98785C780004DB7840EA04203A
:10250000104340EA036010BDC36A5858FBE7036BF1
:1025100043B1036CC91A836B5A18585C527840EA6D
:1025200002207047C36A585A7047000070B50446CD
:10253000006B0D461646D8B1E36B934208D20923CF
:102540000D4A68210D4884F844300D4B28F014FFE3
:102550000368DB689847206B3246A16B03681B69F0
:10256000984710B90D2384F84430A06B256470BDE2
:10257000E06A0844FBE700BFA1CF02083BCF020896
:102580008ECF02082DE9F843436904462BB9234B4B
:10259000AD21234A234828F0EFFE08228169FFF786
:1025A000C5FFA169204643F23006043146F2643784
:1025B000FFF798FF0546A169A36A0D4405F10802DB
:1025C0009A4224D2636909350822204625F0010188
:1025D0000133A1616361FFF7A9FFD4F81880204699
:1025E0004146FFF794FF814608F104012046FFF7BA
:1025F00079FFB1450546DED108F102012046FFF71B
:1026000086FFB842D7D1002DD5D0012004E00123A8
:1026100000206361236AA361BDE8F883E3CF020869
:102620002CD002083BCF02082DE9F04F0446ADF54F
:102630001F7D8A461546816908229846FFF776FF76
:10264000A7692046391DFFF74DFF07F10801024633
:1026500006462046FFF76AFF636B074633B93C4BDB
:102660004FF4D7713B4A3C4828F086FE002203A86D
:10267000CDE901320DF02EF94FF4F472502124907F
:1026800024A807F048F83246394624A807F0DCFFB2
:10269000012124A807F048F9022324A88DF8D83096
:1026A00007F0E6F9BAF90260479BB34205D201226E
:1026B00001A924A807F025FAF6E7BAF900904FEA35
:1026C0004808BAF804702B9B08FB06554F44BAF82B
:1026D0000260DFF888B03FB29F4228BF1F46BAF8B9
:1026E000063009EB490A1E44419B36B29E4228BF80
:1026F0001E46479BB3421FD2012201A924A807F01E
:1027000000FA626B49465244B94202F1030211D207
:1027100012F8020C12F8013CC0000BEA032300F48B
:10272000FC60034312F8030C43EAD00325F8113090
:102730000131E9E74544DCE724A807F017F924A8AC
:1027400007F036F801200DF51F7DBDE8F08F00BFC2
:102750005FD00208B5D002083BCF020800F8FFFFA7
:102760000129036838BF0121DB6A70B50D460446B4
:102770009847A84204D223682046DB6A984705465A
:102780006B1EE6691022204606EB031606F10801CF
:10279000FFF7CCFE06F110012046FFF7A3FE236AE7
:1027A000043B0344C4E9055370BD00002DE9F34127
:1027B000002104464822816180F84410FFF7B6FEEC
:1027C000A7690423634A39462046FFF77BFE40B1E0
:1027D0000323614AF52184F84430604B604828F0B7
:1027E000CBFD07F1080104235E4A2046A161FFF7F3
:1027F00069FE30B10423584AFD2184F844305A4B15
:10280000ECE707F10C010423584A2046A161FFF7C9
:1028100059FE064638B105234F4A4FF4827184F8B9
:102820004430534BDAE707F110012046FFF75AFE18
:10283000054620B94F4B4FF48571474ACEE707F163
:10284000140804234C4A20464146FFF73BFE00286B
:102850004BD0062384F844300423484A07F118017A
:102860002046FFF72FFE002841D0072384F844308C
:102870004544434F0C2220462946FFF757FE05F1F9
:10288000080604233A4620463146FFF71BFE94F81B
:10289000443000284AD0002B4AD1A36A291DAB42FC
:1028A0004AD805F10C03291D2046A3610191FFF7C9
:1028B00019FE3044019960622046FFF713FE06447A
:1028C000042220463146FFF731FE04232D4A3146CB
:1028D0002046FFF7F7FD002839D10123E661636147
:1028E000A369236202B0BDE8F0810126B4E7002E9F
:1028F000BED007F120012046FFF7F4FD4FF47A73B4
:1029000007F13001B0FBF3F060602046FFF7EAFD0D
:1029100007F14001A0602046FFF7E4FD07F1440104
:10292000E0602046FFF7DEFD2061A1E7002BB8D074
:102930000A2384F84430D5E72046FFF7D3FD08305A
:102940000C22054420462946FFF7F0FD97E70B23AC
:10295000EFE700BF0FD102082DD1020814D1020801
:102960003BCF02085AD102085FD1020877D1020892
:102970007CD1020892D102089ED10208A3D102089C
:10298000A8D10208ADD10208C0E90A2100220263E1
:10299000FFF70CBF10B5002304460846E3620B683E
:1029A00021639B689847A0622046BDE81040FFF76E
:1029B000FDBEF0B4BDF81050BDF814602AB123B1CB
:1029C000CDE90456F0BCFFF701BDF0BC7047000034
:1029D0002DE9FF479946436904460F4690462BB9B7
:1029E0002A4B7A212A4A2B4828F0C6FC0822816902
:1029F000FFF79CFDA669204606F1080A311DFFF786
:102A000071FDA36A00EB0A0205469A4231D23146B3
:102A10002046FFF77CFD43F2300398421DD1B11CE4
:102A20002046FFF774FD46F26433984215D1A5B1F4
:102A30002A4651462046C4F818A0FFF777FD0C9BA4
:102A400001462A462046CDF80080CDE901933B4659
:102A5000FFF7AFFF636901336361A3692B448DB155
:102A6000A361A369626A013323F001039342A36166
:102A70000AD10120236A6061A36180F0010004B0E3
:102A8000BDE8F0870833EBE70020F6E7E3CF020864
:102A9000B2D102083BCF0208012070470C207047DA
:102AA0000C2303FB0100083070470C2303FB0100DB
:102AB000083070470120704741F6FC60704741F6CE
:102AC000FC6303FB01000830704741F6FC6303FB25
:102AD000010008307047012070471020704700EB5C
:102AE00001100830704700EB0110083070470846AD
:102AF00000F08EBE034B10B50446036013F036FFA2
:102B0000204610BDC0D2020810B50446FFF7F2FF00
:102B10001421204628F001FC204610BD034B10B5BF
:102B20000446036013F022FF204610BD8CD2020839
:102B300010B50446FFF7F2FF41F60471204628F075
:102B4000ECFB204610BD0000034B10B504460360AB
:102B500013F00CFF204610BD58D2020810B50446F1
:102B6000FFF7F2FF1821204628F0D7FB204610BDC2
:102B7000094B10B50446036000F5F9501030FFF71B
:102B8000B9FF04F12C00FFF7C9FF04F11400FFF7AF
:102B9000DBFF204610BD00BFF4D2020808B5024892
:102BA000FFF7E6FF08BD00BFC403002010B50446D0
:102BB000FFF7DEFF42F2A401204628F0AEFB2046DC
:102BC00010BD00002DE9F34100F0AEFC00240546E5
:102BD00000F0AEFC234601462246284600941CF035
:102BE00083FA264B264A2046264D1A6001F06AFADF
:102BF00025481CF0E1F92B78BFF35B8FDB0736D457
:102C0000284628F08CFB90B3204C214F214B04F137
:102C1000140007F1180604F12C0823606060C4F862
:102C20000880E760266113F0A3FE1B4B40466361FA
:102C300013F09EFE194B3846E36213F099FE04F53B
:102C40008053174A03F64470C3F8302F01F0B6FAE8
:102C5000224607F11401304601F0A6FA304600F092
:102C6000D7FD104828F0A6FB284628F064FB0E4844
:102C700002B0BDE8F041FFF76BB800BFEC6E012079
:102C800088320020C003002008000020C403002078
:102C9000F4220020F4D2020858D202088CD2020892
:102CA000C0D202089D2B00080C32002070470000A3
:102CB000014814F014BC00BF0C32002070B5234E44
:102CC000234B244C3046244D2360FFF7E1F928467E
:102CD0001FF016FB214B00224FF4807120481A860A
:102CE0001A6683F86C201A67DC60C3E912121D496A
:102CF000C3E919124FF080715967012183F87810E8
:102D000019490B604FF4F0710180184801804FF4AD
:102D100088711748C3E90422C3E90622C3E90822DF
:102D2000C3E90A22C3E90E22C3E91022C3E914222F
:102D3000C3E91622C3E9016501800E4883F83420F7
:102D400001800D490A700D4A1A6070BD6C24002084
:102D5000E0C90208682400208C3200200C320020D8
:102D60007C6E012001000001886E0120826E01202E
:102D70007E6E0120846E0120806E01206CCB0208E3
:102D80000148FFF761B900BF6C24002000207047A4
:102D900081807047C18070470181704741817047D1
:102DA0007047704770477047704710B4C488036815
:102DB000121B84885B6D091B12B25DF8044B09B2CB
:102DC00018474FF6FF7383814FF0FF330362136898
:102DD000C3611060704790F825201AB190F8242044
:102DE00002B118607047002070478B8883800120F3
:102DF0007047704780F82610704790F8260070479B
:102E0000002210B5B1F90840B1F90A1002804280E1
:102E10008480C18010BD0022028042808280C280F6
:102E200070470000034B902283F85A2383F85823FD
:102E3000704700BF00E100E0094A0A49D3680A4828
:102E4000C3F30A03013B9BB20B801169C1F30A0172
:102E5000013901801364536B43F0010353637047DE
:102E6000006801400833002006330020014BD3F8EE
:102E7000AC00704700680140024B0122C3F8AC105F
:102E80005A62704700680140124A5369DB0370B50B
:102E90001ED50023C2F88430BFF34F8FD2F88030A4
:102EA00043F6E074C3F3C900C3F34E335B0103EA96
:102EB0000406014646EA81750139C2F87452F9D216
:102EC000203B13F1200FF2D1BFF34F8FBFF36F8F71
:102ED00070BD00BF00ED00E07047382301FB0331F7
:102EE0000023435490F838300BB9036C8364704767
:102EF000704710B50446582128F00FFA204610BD3F
:102F000038B5044614F0D7FA23685D6E18F0D0FF88
:102F100001462046A8472368084A2046D3F888502F
:102F20000023A2F57F31A847054B064A5A60064A9E
:102F30001A649A644FF4FF225A6438BD00F807C03F
:102F4000D43A00208C3A002000F40BC014F09ABA56
:102F500090F84B3013B1024B01221A7014F09EBA54
:102F60000433002014F058BA14F0C1BB90F82520A7
:102F700012B103685B6918477047000008B531B1AA
:102F8000044B40F29711044A044828F0F5F990F8F0
:102F9000390008BD00D3020814D30208A1D40208E6
:102FA00010B531B1064B40F29111064A064828F09F
:102FB000E3F9406811460368BDE810401B6B1847F1
:102FC00000D30208E3D40208A1D4020808B529B14D
:102FD000034B7A21034A044828F0CEF9006908BD62
:102FE00000D3020894D60208A1D4020808B529B17A
:102FF000054B8321054A064828F0BEF941618160EE
:10300000C0E9063208BD00BF00D302084CD8020850
:10301000A1D4020810B5044629B1274BA421274AA0
:10302000274828F0A9F9052A34D8DFE802F0032957
:103030002F34393E406803681B69984750B34FF0FE
:10304000FF31606D04F016F90023012294F83E1060
:1030500084F83B3084F83920A360636101B12262B7
:1030600084F83E306362E36A2BB90123206D84F853
:103070003A3004F0E9F9606DBDE8104004F02AB977
:10308000002380F8393084F83E3003E003620023E7
:103090008360436110BD0362002383604361F2E7F4
:1030A000002380F839300123EDE7003B18BF0123EE
:1030B00080F83D30EEE700BF00D302080BDA0208CB
:1030C000A1D4020870B50446164629B1314BE72158
:1030D000314A324828F050F990F8393033B1304B4A
:1030E0001B6893F86720436913444361E36A002B2C
:1030F0004DD0E169D4E905325343A2684A43934273
:1031000020D2236A002B42D04FF0FF31606D04F0D3
:10311000B1F8236A0BB10023E362E36AFBB901252E
:10312000606D04F0D7F894F839300BB9236A3BB1DD
:10313000E36A2BB90123206D84F83A3004F084F956
:10314000284670BD94F84C000028DDD09B1AB3FBD4
:10315000F1F2994298BF02F1FF326262D4E7002295
:1031600094F83C50A3623046E262E2682261A268B1
:103170000132A260336333685B699847002DCED17A
:1031800094F83D30002BCBD184F83950C8E70125A5
:10319000C9E700BF00D30208E2DB0208A1D402089D
:1031A000886E0120034B4FF080629A604FF080726E
:1031B0009A60704700E100E0084B4FF08062C3F86E
:1031C0008820BFF34F8FBFF36F8F4FF08072C3F82B
:1031D0008820BFF34F8FBFF36F8F704700E100E08F
:1031E00038B590F838303BBB01228360C3608263FE
:1031F0004FF48072436182874FF4F0728361C36140
:10320000036243628362C3620363436380F83E30B8
:10321000CA864FF4887281F834300A870B63826C57
:10322000036102F5FF24D0E9101529448C420AD924
:10323000084B5821084A03E0084B40F2F511084AB0
:10324000084828F099F8026302F57F3284644263EB
:10325000184638BD40DF020880DF020886DD02081C
:10326000B6DD0208A1D40208002370B5124E05464F
:103270008380124B0360336893F876200AB1D86CD0
:1032800000B998680368DB6A98473368B0FA80F43D
:10329000D86C640930B10368DB6A9847002808BF1E
:1032A00044F001042CB9064B2C21064A064828F0AC
:1032B00063F8284670BD00BF886E012028E202082E
:1032C00026E1020884E10208BDE1020810B5144CB1
:1032D000236823B3134B144A1B6C11888B4213D100
:1032E000124B198802F0B8FB226892F8663001335D
:1032F00082F86630FEF758FE206814F02FFE00209A
:10330000BDE81040FEF754BC02F0A6FB206803683D
:103310001B6A98470020BDE81040FEF779BC10BD3D
:10332000886E012000680140083300200633002029
:103330002DE9F74304464FF4707894F83A304FF093
:10334000FF311BB9206D04F045F8F6E7606D03F01E
:1033500091FF276BA36A266ABB42656808BF676B4B
:1033600036B32B68314628465B6A984700232362B0
:1033700084F83B30606D03F0ADFF2B684FF4F072C2
:103380003946CDF8008028465E694FF48873B0470F
:103390004FF0FF310646606D03F06CFF94F83B3050
:1033A000C3B1002384F83B30606D03F093FFC4E7A2
:1033B000636A002BDED02B682846D3E9099398472F
:1033C000616A01442846C847A368626A666213447A
:1033D000A360CFE7E7625EB12B6828469B6A9847F7
:1033E0000138E060002384F83C6084F83A30DBE781
:1033F0000123E360F6E70000014808B5FFF798FFF6
:10340000D43A00200368042270B504465E6A0023A3
:103410000D46B0474FF0FF31606D03F02BFF3821B0
:1034200001FB0543DA6A0AB10022DA6201FB0545B5
:10343000012385F83B30002385F83930606DBDE805
:10344000704003F047BF38B500EB810304460D46DA
:10345000114658680368DB68984729462046FFF7FD
:10346000D1FF38BD70B50D461146044600EB85020C
:103470005068026896681A46B04729462046FFF70A
:10348000C1FF70BD38B5164900251648FFF702F890
:10349000154C164B01202A46294623604FF48073B1
:1034A000A564A38784F84C0084F83E50C4E9105505
:1034B000C4E91455C4E90155C4E90355C4E90555E7
:1034C000C4E90755C4E90955C4E90B55C4E90D55CC
:1034D00003F02AFF2065284603F08AFE606538BDA8
:1034E0000C3300208C3A0020D43A002048E2020835
:1034F000704710B50446042127F00FFF204610BD89
:10350000012908B506D0022908D059B900F026FED5
:10351000006808BD00F022FE4068FAE700F01EFED9
:103520008068F6E70020F4E70048704790E2020860
:103530000320704713B5002451B1036801AA019418
:103540008DF803409C680DF10303A04702B010BD45
:103550000846FBE7C0897047008A7047C0887047FB
:1035600080887047807A00F07F007047807AC009B9
:103570007047704710B50446082127F0CEFE20465C
:1035800010BD7047704700F598730868496803C319
:10359000704770477047416070477047064BC0F8EE
:1035A0004801C0F84C310023C0F8503100F5A27337
:1035B000C0F84031704700BF5D3600080123037238
:1035C00070477047704710B441680346C2689B68F3
:1035D000541001EB6200D20748BF0A595DF8044B52
:1035E00048BFD358184743682BB183682BB9C068CC
:1035F00000F001007047184670470120704710B571
:1036000004460C2127F089FE204610BD10B5044663
:10361000102127F082FE204610BD10B504464FF45D
:10362000AE7127F07AFE204610BD08B518F040FCB8
:10363000BDE8084019F0D0B810B50446D0F84001F4
:1036400058B10368DB68984738B1D4F84001036883
:103650009B6898470023C4F8403110BD2DE9F14F15
:10366000D0E9555A0746A86803681B6A984741F68F
:10367000FB63984205D8464BA321464A464827F0AB
:103680007BFE686803681B6A98470F2803D8434B82
:10369000A421404AF2E7E86803681B6A98470B28B0
:1036A00003D83F4BA5213B4AE8E7DFF8FC9018F030
:1036B000FFFB043018F03AFCD9F8000010B10368A1
:1036C000DB689847D9F8000010B103681B68984779
:1036D000DFF8D880D8F8000010B103685B6998471C
:1036E000D7F83C0110B103685B689847D8F8000030
:1036F00010B103681B689847D7F83C0110B1036804
:103700009B689847E86800214FF0000B03685B6AEC
:103710009847244B0446C0F804B00360594680F82B
:1037200008B0A86803685B6A9847064600F0A8FDE1
:103730006868594603685B6A98470546314600F059
:1037400079FDC9F80040C7F83C51C8F80060E5B100
:103750002B1DCAF8003030463368C5F808A0DB6876
:10376000F56398472B6828461B68984721463046E2
:103770001AF008F9236820461B69984723682046F9
:103780005B6901B0BDE8F04F18472B46E1E700BF89
:10379000DCE202086AE302086EE40208B5E402080B
:1037A00058E5020868E60208D06E0120CC6E0120C0
:1037B000F8B5044617460E4618F08AFC104B002553
:1037C0001C6029460F4BC4E955760F4E23603068C4
:1037D0000E4BC4E95355C4E951350368C4E94F554C
:1037E0009B689847284600F06DFC336893F8762074
:1037F0000AB1D86C00B9986820F069FB2046F8BD82
:10380000DC6E01201CE60208886E012004E6020836
:10381000064BC0F84801C0F84C310023C0F85031C5
:1038200000F5A273C0F84031704700BF5D36000854
:10383000406A7047806A704770478B88C069DB0AAE
:103840000A6850F823001044704710B5C2B1137BCA
:10385000B3B1547BD27A240204F4E0641443026AC4
:1038600098B202EB840213888B4202D192F90200D3
:1038700010BD05D80138043280B20028F3D1F7E733
:103880000020F5E710B504462C2127F046FD204620
:1038900010BD000030B58BB00446BDF860500895EF
:1038A000BDF85C5007959DF8505006959DF84C501A
:1038B00005959DF8485004959DF8445003959DF852
:1038C000405002959DF83C500195BDF83850009548
:1038D00019F02AFC064B20462360159BE361169BDA
:1038E0002362199B63621A9BA3620BB030BD00BFB9
:1038F0008CE602087047704770477047704730B5D4
:1039000085B00368044601816D460146D3F88430D2
:103910003C342846984795E8070084E8070005B03E
:1039200030BD30B585B00368044641816D4601461F
:10393000D3F884303C342846984795E8070084E85B
:10394000070005B030BD0022028042808280C28024
:10395000704780F836107047036870B504461B6BDB
:10396000154698472368204629465B6EBDE870409F
:10397000184700207047806C70477047704710B53B
:1039800004464C2127F0C9FC204610BD034B10B55E
:103990000446036016F0C8FD204610BD20E9020869
:1039A000074B07B50360019016F0BEFD019841F684
:1039B000FC6127F0B2FC019803B05DF804FB00BF86
:1039C00020E9020808B5FFF7D1FA08BD036870B511
:1039D0005E6B0446114B8DB21B682BB9104B6C21EA
:1039E000104A114827F0C8FC1049828D098891427D
:1039F00003D80F4B6D210B4AF3E713F812200D4B40
:103A00001B6853F8220003681B6B9847281A33463B
:103A100001B22046BDE87040184700BFE06E0120AB
:103A2000E4E6020826E7020861E70208E46E0120E6
:103A3000A8E70208E86E012000224FF0FF31826003
:103A4000C0E900217047036870B504461B6B15463A
:103A500098472368204629465B6BBDE870401847AD
:103A600070B504461D46BDF91060FFF7ECFF2368F2
:103A7000294620469B6B9847236831462046DB6BDE
:103A8000BDE87040184700000022C0E90122C0E9EB
:103A90000322C0E90522C0E907224FF48072828424
:103AA000014A0260704700BF28E8020838B50446A2
:103AB0000D462622002127F0EFFC2046FFF7E4FF09
:103AC000064B2046294623602B88E384FF2384F895
:103AD000283015F024FE204638BD00BF1012030820
:103AE00010B504462622002127F0D6FC2046FFF719
:103AF000CBFF0A4B4FF47F0220462360084BA362A2
:103B00004FF6FF73A3850023C4E90C324FF0FF3258
:103B10002387E363C4E9102310BD00BF1811030815
:103B2000D4E202082DE9F04F044600254FF6FF7657
:103B3000BE4FA04604F16C0B04F1980A07F124096A
:103B40002DED048B8BB019F071FDB94B262229465F
:103B5000E56348F8403B404627F09EFC4046FFF7AF
:103B600093FFB44B08A958462364FF23A56684F845
:103B70006630ADF82060FFF799FF08A95046ADF810
:103B80002060FFF793FF04F1C40304F59076184614
:103B900008EE903A14F0FAFB04F586731846039386
:103BA000FFF762FB3046C4F80C71C4F81491C4F8F6
:103BB000185112F0AFFF04F50873184609EE103AD9
:103BC000FFF752FBC4F8289204F50D79C4F820726F
:103BD000C4F82C52271D4846FFF782FF964BC4F8C5
:103BE0007C52C4F8343204F52073184608EE103ABB
:103BF000FFF776FF4FF4E15104F5377016F08AFCB9
:103C00004FF488732A464046294600934FF4F073D8
:103C1000FFF726FF4FF07F4341463846A3664FF03B
:103C2000010813F05FF96FF00A0258462946FFF7C2
:103C30000AFF584608A9ADF8208015F070FD5946D6
:103C400038464FF0020B13F04DF90A225046A821D6
:103C5000FFF7F9FE504608A9ADF820B015F05FFD5A
:103C6000514638464FF0610A13F03CF9F0236FF0EB
:103C70000C02782118EE900A0093FFF7F1FE4FF442
:103C8000706318EE901A3846C4F80451A4F81C5119
:103C9000C4E93C334FF42063C4F8F8304FF4345394
:103CA000C4E93F354FF07F43C4F81831039BC4F893
:103CB000EC3013F017F930460C229121FFF7C3FEC8
:103CC000BE2330462A462946009312F0C9FE2B46F1
:103CD0003046FE222946009512F050FF5F22304602
:103CE000114612F052FE3046552112F078FE304651
:103CF000142112F07AFEB42230466FF0B30112F0B4
:103D0000F7FE30465A2112F077FE304608A9ADF88A
:103D1000205013F07AF8494B304619EE101AC4F8C7
:103D20002C3240F61F53A4F8303212F02BFE3046EE
:103D3000322112F0C2FE3146384604AE13F0D2F8FA
:103D40003122A8239C214846CDF800A0FFF788FE29
:103D50004FF0FF3349463046C4F86432D4F8343269
:103D6000A4F86852D3F88430984704F51C7396E899
:103D7000070083E8070004F532730393304B1B6898
:103D80002BB9304B6021304A304827F0F5FA304BE0
:103D90001B88012B03D82F4B51462B4AF4E72E4B9F
:103DA0004146DFF8C080186800F0C8F92B4A034686
:103DB0000A2103981BF0F2F8039B08A94846C4F8AF
:103DC0007C32CDF82080ADF824B015F0E1FB4946F7
:103DD000384613F087F8882218EE100AD621FFF72C
:103DE00032FE1F4B18EE101A3046C4F8B032A4F859
:103DF000B45215F033F904F52F7396E8070083E801
:103E0000070008A918EE100ACDF82080ADF824505C
:103E100015F0BEFB384618EE101A13F063F8204672
:103E20000BB0BDEC048BBDE8F08F00BF380F03086A
:103E300020E90208A811030890E80208FFA008FF83
:103E4000E06E0120E4E60208E6E7020861E7020806
:103E5000E46E0120A8E70208EC6E0120500103087F
:103E60003176F5FFD4E202087047000030B5174DF7
:103E70008FB02C78BFF35B8F14F0010422D1284659
:103E800027F04DFAF0B13F23052211490993114B58
:103E900011480893114B0A940194CDE9064301237C
:103EA000CDE904330423CDE902431423CDE90B44C7
:103EB00000931723FFF7EEFC094827F07BFA28460A
:103EC00027F039FA04480FB030BD00BF2C3B00206A
:103ED000CCB412907C170308303B002088170308ED
:103EE000693E00087047000030B5164D8FB02C7841
:103EF000BFF35B8F14F0010420D1284627F00FFA9E
:103F0000E0B13F23012210490993104B1048089358
:103F1000104B0A940594CDE906430423CDE90332FE
:103F20002823CDE90B440093CDE90144FFF7B2FC0F
:103F3000094827F03FFA284627F0FDF904480FB05A
:103F400030BD00BF5C3B002014B512908017030801
:103F5000603B00208C170308E53E00087047000016
:103F600030B5174D8FB02C78BFF35B8F14F0010480
:103F700022D1284627F0D3F9F0B13F23012211497D
:103F80000993114B11480893114B0A940594CDE9FC
:103F900006430423CDE9033250230B22009351231F
:103FA000CDE90B44CDE90144FFF774FC094827F043
:103FB00001FA284627F0BFF904480FB030BD00BF12
:103FC0008C3B002024B5129084170308903B0020FE
:103FD000901703085D3F00080020704700207047DD
:103FE0000EB403B503AB002153F8042B019318F072
:103FF000C3FE02B05DF804EB03B070470CB407B524
:1040000004AB53F8042B019318F0B6FE03B05DF82F
:1040100004EB02B070470000436C10B5044673B364
:10402000038F2BB9184BC521184A194827F0A4F95A
:10403000C38E00EB43035B8C0BB31AF001FA238FA2
:10404000012B03D8134BCB21134AEEE7E28E40F647
:104050003F10531C9BB2092B194688BFA3F10A01DC
:1040600004EB4101498C814209D10A2B04EB420245
:1040700028BF0023508C04EB43035884518420460E
:10408000BDE810401AF0DEB84CE9020855E9020814
:1040900000EA02084AEA020858EA02081AF09BB845
:1040A00010B586B002AC84E806001A460AAB214679
:1040B00005930193099B0093089B17F0B7FA06B08C
:1040C00010BD000038B518BB124B13481B681349CC
:1040D000B3B11A689C681A441C4402605A681A44B6
:1040E0000A600F4B00221A8000F038F8054600F0F5
:1040F00033F80C4B1C600C4B1D600C4B188007E018
:104100000B4B03600B4B0B600B4B1C68002CE8D176
:1041100038BD00BFBC3B0020C03B0020C43B00209A
:10412000C83B0020E06E0120E86E0120E46E012013
:10413000CCB51290C0B51290E8B51290044B1B6834
:1041400053F82100034B1B6803EB4000704700BF8E
:10415000C43B0020C03B002003207047004870474C
:10416000CC3B002010B5054CFFF7FAFE2060FFF7AE
:10417000BBFE6060FFF77AFEA06010BDCC3B002064
:10418000704710B504464FF4AE7127F0C6F82046CC
:1041900010BD10B50446D0F8580100F01DF82046B7
:1041A000BDE8104017F020BF10B50446FFF700FB34
:1041B000014B2046236010BD34EB02080022012190
:1041C00010B504460260084603F054FE014B186027
:1041D000204610BDDC3B002070B5094B0446094D5C
:1041E00000221868294604F088F8012806D12068C2
:1041F00029680368BDE870409B68184770BD00BF20
:10420000DC3B0020D83B00207047043870477047E3
:1042100010B50446102127F080F8204610BDA0F10B
:104220000400F5E7C06800F037B8A0F10400FFF71C
:10423000F9BF00000022C1608260044A10B502F19B
:10424000080424320460426010BD00BF78EB02080D
:1042500070470000034B10B504460360FFF796FB60
:10426000204610BDB0EB020810B50446FFF7F2FF80
:1042700041F6FC61204627F050F8204610BD0000B2
:1042800010B50446FFF74EFC014B2046236010BDDD
:10429000B0EB0208FFF771BB38B504460D460B467C
:1042A000084A0A2100F532701AF078FE04F5907081
:1042B000294612F002FC04F50D70BDE8384018F0F4
:1042C00086BE00BFAEFE020800B54FF4807295B006
:1042D0004FF0807103460C9205220F910121069246
:1042E000002201910B92139200920B48CDE9031228
:1042F000CDE90D22CDE91122102206A902924FF438
:10430000800205926A4601F07FFD003818BF012047
:1043100015B05DF804FB00BFE03B002000B54FF492
:10432000807395B041F2883217480C93062306A992
:1043300006930023CDE90D330F930B931393CDE92F
:10434000113301F01EFDE0B9022301224FF4800178
:1043500004900D48CDE900331023CDE90232052346
:104360006A46CDE905134FF0807306A90F9341F219
:10437000883301F049FD003818BF012015B05DF801
:1043800004FB0120FAE700BFE03B002000B54FF43A
:10439000807391B04FF040720E480893EB2302A94E
:1043A00002934FF4406309934FF4005305930023A5
:1043B000CDE90A320A220F9307926A46CDE90D33FE
:1043C000CDE9003301F070FD003818BF012011B0B5
:1043D0005DF804FBE03B0020454B012145489A6B0A
:1043E00042F00202F0B59A638DB09A6B092404275B
:1043F000002602F00202404D0092009A9A6942F0B3
:1044000002029A619A6922F002029A611A6B42F0E2
:1044100002021A631A6B02F002020192019A1A6BED
:1044200042F002021A631A6B02F002020292029A2E
:104430001A6B42F008021A631A6B02F00802039228
:10444000039A1A6B42F008021A631A6B02F0080210
:104450000492049A1A6B42F010021A631A6B02F06B
:1044600010020592059A1A6B42F008021A63402264
:104470001B6B03F008030693069B0223CDE9072379
:104480000323CDE909130A2307A90B9300F042FC8B
:1044900007A91848079709960B9400F03BFC4FF4C6
:1044A000006307A928460B94079300F033FC4FF4F0
:1044B000805307A928460B94079300F02BFC07A90B
:1044C0000E4807970B9400F025FC4FF4005307A902
:1044D00028460B94079300F01DFC32460F215C2008
:1044E00000F0D8F95C2000F007FA0DB0F0BD00BF75
:1044F0000038024000040240000C0240001002405C
:10450000F0B5494C91B0494B2046236001F026FCA0
:10451000054610B1012011B0F0BD01462046FFF75D
:104520005BFF012604234FF08077C4E90163102369
:10453000E36097FAA7F3B3FA83F32046013B2361C4
:104540004FF4A063C4E90755C4E9053501F0B2FB97
:104550000028DFD14FF4807566230B9041F288323A
:10456000079002A90F9008950293CDE90900CDE9C3
:104570000D00204601F005FC08B10420CBE799238B
:1045800041F2883202A92046029301F0FAFB00288A
:10459000F3D141F28830FFF797FE0028EDD1852353
:1045A000079041F2883202A9089502930B97CDE952
:1045B0000900CDE90C60CDE90E00204601F0E1FBD9
:1045C0000028DAD141F288320DF10701204601F0CE
:1045D00051FD0028D1D1FFF7A1FE0028CDD18123C4
:1045E000F022029392FAA2F20A219DF80730B2FA61
:1045F00082F2204603F00F0301FA02F202A91343EC
:1046000041F288328DF8073001F0BBFB0028B4D1AD
:1046100041F288320DF10701204601F0CFFC00285D
:104620003FF479AFA9E700BFE03B0020001000A0F5
:104630000F490020D1F8883043F47003C1F8883066
:104640000C4B1A6842F001021A6098601A6822F056
:10465000847222F480321A60074A5A601A6822F47F
:1046600080221A60D8604FF000638B60704700BFF3
:1046700000ED00E0003802401030002470470020B8
:1046800070470000002337B58DF807300D4B1A78BE
:104690000AB901221A700324C5B2013CA821284698
:1046A000FDF76AFA14F0FF048DF807009DF8073053
:1046B000DBB203D19DF8070003B030BD512BECD124
:1046C000F8E700BF2E3C002013B500240221C0B241
:1046D0008DF80740FDF750FA8DF807009DF8073078
:1046E00003F00F038DF807309DF80730052B01D933
:1046F0008DF807409DF80720034B9DF807005A707E
:1047000000229A7002B010BD2E3C00202DE9F74F18
:104710002F4D164600230F46AC786A788DF8073087
:10472000A2424DD9092C4ED804EB44035B00DBB206
:10473000191D03F1030B03F1060A0533C9B25FFA31
:104740008BFB5FFA8AFA5FFA83F8C4B2DFF88490D1
:104750002046FDF711FA8DF807009DF807305946FD
:104760002046A9F80030FDF707FA8DF807005146FA
:104770009DF807302046B9F800201B0203F470634F
:1047800013433B80A9F80030FDF7F6F98DF80700D8
:1047900041469DF807302046A9F80030FDF7ECF9B6
:1047A0008DF807009DF80730B9F800201B0203F4CC
:1047B00070631343A9F800303380AB780133AB70DA
:1047C00003B0BDE8F08F98469A469B461946BCE771
:1047D0002E3C00202C3C00200122A421C0B2FDF779
:1047E000B1B90022A421C0B2FDF7ACB9FFF7F9BFFF
:1047F00070470000024B1A780AB901221A707047FC
:104800002E3C0020074A032008B5136843F4807348
:10481000136000F02DF80020FDF72EF8FCF7D0FD16
:10482000002008BD003C0240034A044B11681B787D
:104830000B441360704700BF343C00203800002058
:10484000014B1868704700BF343C002038B504465F
:10485000FFF7F6FF0546631C1EBF044B1B78E418E8
:10486000FFF7EEFF431BA342FAD338BD3800002008
:1048700007490302CA6803F4E06322F4E062120409
:10488000120C134343F0BF6343F40033CB60704713
:1048900000ED00E0164B30B5DC68C4F30224C4F12F
:1048A0000705231D042D28BF0425062B4FF0FF33D9
:1048B0008CBF033C002403FA05F5002803FA04F337
:1048C00021EA050122EA030201FA04F141EA0203A6
:1048D0004FEA0313DBB206DB00F1604000F56140F4
:1048E00080F8003330BD00F00F00024A1354F9E79E
:1048F00000ED00E014ED00E0002808DB4209012390
:1049000000F01F0003FA00F0014B43F8220070474B
:1049100000E100E000280DDB4309012200F01F0048
:10492000203302FA00F0044A42F82300BFF34F8F0D
:10493000BFF36F8F704700BF00E100E0BFF35F8FF0
:10494000044B5A6A22F480325A620022C3F894203F
:10495000704700BF00ED00E0064B40F00100C3F8D7
:1049600094005A6A42F480325A62BFF34F8FBFF309
:104970006F8F704700ED00E04378144A10B5C2F81D
:1049800098300178E9B14368C2F89C30C37A047B5F
:104990001B0643EA04730B43817A43EAC143417B1C
:1049A00043EA8143817B43EA4143C17B43EA0143BC
:1049B000417A43EA0123017A43EA4103C2F8A03075
:1049C00010BDC2F89C10C2F8A010F9E700ED00E09D
:1049D00010B5044608B9012010BD437F03F0FF0263
:1049E00013B90277FCF70AFD022363772379E3B951
:1049F0002368134A5A619A6822F018029A60627911
:104A00002368D2B94FF0FF321A6100209A686169B9
:104A100022F060020A43A1699A609A6822F080023B
:104A20000A439A6001236377D6E7D4E9021220464D
:104A300000F008F80028E2D0CDE72269E4E700BFE3
:104A4000B71DC1041F2310B5013B1CD321FA03F489
:104A5000E407F9D5102A12D004D83AB1082A10D0A8
:104A600001200BE0182AFBD1062BF9D80068416120
:104A7000836823F018031A438260002010BD072BBF
:104A8000F3E70F2BF1E7002AEAD1EFE770B5044610
:104A9000866DFFF7D5FE054694F83530022B06D01B
:104AA000802301206365002384F8343070BD2368BF
:104AB0001A6822F016021A605A6922F080025A61BE
:104AC000226C0AB9A26C1AB11A6822F008021A60A4
:104AD0001A6822F001021A6023681B6813F00103B0
:104AE0000AD1E16D3F2218468A40B260012284F863
:104AF000343084F83520D9E7FFF7A2FE401B0528A3
:104B0000EAD9202303206365002384F8350084F864
:104B10003430CBE710B5044630B390F8393003F0A9
:104B2000FF021BB980F83820FCF77EFC22680223C4
:104B30006168002084F83930136823F440330B4354
:104B4000A1681360536B23F007030B43E1685363C1
:104B5000136C23F47F5323F03F030B4313640123AF
:104B6000E06384F8393010BD0120FCE770477047DE
:104B7000036870B55E6804461D68F20714D5E90540
:104B800012D51A6822F480721A60C26B42F00102D8
:104B9000C26301229A60042380F83930002380F830
:104BA0003830436903B19847B20616D5AB0414D523
:104BB00023681A6822F400521A6020229A60E36B7C
:104BC00043F00203E363042384F83930002384F8BC
:104BD000383063690BB120469847300716D5290550
:104BE00014D523681A6822F400621A6008229A60B9
:104BF000E36B43F00403E363042384F839300023B8
:104C000084F8383063690BB12046984772070BD59A
:104C10006B0509D5236820461A6822F480621A6061
:104C200004229A60FFF7A2FFB00714D5A90512D598
:104C300023681A6822F400721A6002229A60E36BF9
:104C4000E363012384F83930002384F83830236982
:104C50000BB120469847F20613D5EB0411D5236813
:104C600020461A6822F480521A6010229A60E36B80
:104C7000E363012384F83930002384F83830FFF7E8
:104C800076FF70BDF0B590F83830012B4FF002037D
:104C90002BD080F83930012200EB01131C4F80F833
:104CA00038200E015D6AD3E9074244EA0242093C1A
:104CB000012C96BF05F07F4342EA05621A43036860
:104CC000A9B9596A012C01EA070142EA01025A62B4
:104CD00082699A6103D8426A22F07F429A62012374
:104CE00080F83930002380F838301846F0BDD96993
:104CF000012C01EA070142EA0102DA6100EB060237
:104D000092691A61EBD825F07F451D62E7E700BF85
:104D1000F0FFFC002DE9F74F0023DFF8BC916C4A4F
:104D200001240D689C4004EA050CAC4340F0B680B9
:104D30004D684FEA4308032605F0030406FA08F617
:104D4000671EF643012F34D8876807EA060ECF683E
:104D500007FA08F747EA0E078760476827EA0C0E4C
:104D6000C5F300179F4047EA0E074760C768022C4B
:104D700007EA060E8F6807FA08F747EA0E07C760CA
:104D800019D14FEAD30A03F0070B4FF00F0E00EBD7
:104D90008A0A4FEA8B0BDAF820700EFA0BFE27EA2C
:104DA0000E0E0F6907FA0BF747EA0E07CAF82070D4
:104DB00001E0032CDAD1076804FA08F415F4403F47
:104DC00006EA070646EA0406066067D0D9F84440BA
:104DD00023F0030603F003074FF00F0E44F4804462
:104DE00006F18046BF00C9F8444006F59C36D9F864
:104DF000444004F480440194019C0EFA07F4D6F870
:104E0000088028EA040E334CA0424ED004F580649A
:104E1000A0424CD004F58064A0424AD004F58064DE
:104E2000A04248D004F58064A04246D004F58064D6
:104E3000A04244D004F58064A04242D004F58064CE
:104E4000A04240D004F58064A0423ED004F58064C6
:104E5000A0420CBF09240A24BC40EF0244EA0E041D
:104E6000B4606FEA0C06946854BF34404CEA040402
:104E7000AF029460D46854BF34404CEA0404AF03DA
:104E8000D460546854BF34404CEA0404ED035460C9
:104E9000146854BF34404CEA040414600133102BEE
:104EA0007FF43EAF03B0BDE8F08F0024D4E70124C7
:104EB000D2E70224D0E70324CEE70424CCE705247C
:104EC000CAE70624C8E70724C6E70824C4E700BFEA
:104ED000003C014000000240003802402DE9F04F44
:104EE00000224A4CDFF82C91DFF82CA1DFF82CB11E
:104EF000012303FA02FE3EEA01030EEA01076ED126
:104F000022F0030502F0030C0F26414B05F180450A
:104F10004FEA8C0C984205F59C3506FA0CF6D5F84C
:104F2000088006EA08085FD003F5806398425DD0E8
:104F300003F5806398425BD003F58063984259D0B3
:104F400003F58063984257D0484557D0504557D015
:104F5000584557D003F58053984255D003F58063E8
:104F600098420CBF09230A2303FA0CF3434513D1DB
:104F7000236823EA07032360636823EA0703636067
:104F8000E36823EA0703E360A36823EA0703A36057
:104F9000AB6823EA0603AB6003265300056802F002
:104FA000070C06FA03F30F274FEA8C0C25EA0305DA
:104FB00007FA0CF7056022FA06F500EB85052E6A64
:104FC00026EA07072F62C56825EA0305C56045681C
:104FD00025EA0E054560856825EA030383600132F2
:104FE000102A85D1BDE8F08F0023BDE70123BBE780
:104FF0000223B9E70323B7E70423B5E70523B3E7A3
:105000000623B1E70723AFE70823ADE7003C0140E3
:10501000000002400014024000180240001C024040
:105020000369194214BF0120002070470AB1816151
:1050300070470904FBE7436901EA030221EA03011F
:1050400041EA02418161704703689A69910701D57D
:1050500000229A629A69D20703D49A6942F0010247
:105060009A61704730B5039DC1F3090104682B4371
:10507000606843EA0243054A0B4342EA555223F073
:10508000004320EA02000343636030BDFF63FF0377
:1050900003682DE9F0419C6905460F46164614F059
:1050A000100470D000241022A046DA612B689A699F
:1050B000920662D4B8F1000F36D044F00404012007
:1050C0002B689A69D60505D54FF4807144F0010428
:1050D0000120D961510505D54FF4806144F00804E1
:1050E0000120D961920550D54FF4007244F00204BA
:1050F000DA612846FFF7A8FF2A680120536823F0E9
:10510000FF7323F48B3323F4FF7323F00103536005
:105110006B6C1C4320236C6485F84130002385F8B8
:10512000423085F8403032E07A1CC0D0FFF788FB6F
:10513000801BB84201D8002FB8D12B68596895F868
:1051400042209869D2B200040AD5480408D4202A23
:1051500006D05A6842F480425A60FFF771FB064657
:105160002B689B699906A1D4FFF76AFB801B19285D
:10517000F6D920244FF0010898E7B8F1000F9CD130
:105180002022DA6199E720469AE70028B1D1BDE8EC
:10519000F08170B504460D46164623689B699B074F
:1051A00001D5002070BD324629462046FFF770FF2A
:1051B000A0B96A1CF1D0FFF743FB801BA84201D8BD
:1051C000002DEAD1636C43F020036364202384F84C
:1051D0004130002384F8423084F840300120E1E778
:1051E0002DE9F041069F0446884616461D46226872
:1051F000936938EA03030CBF01230023B34201D0B3
:10520000002015E06B1CF3D0FFF71AFBC01BA8426F
:1052100001D8002DEBD1636C012043F020036364BF
:10522000202384F84130002384F8423084F8403051
:10523000BDE8F08170B504460D46164623689B69AB
:105240009B0601D5002070BD324629462046FFF757
:105250001FFF90B9FFF7F4FA801BA84201D8002D78
:10526000ECD1636C43F020036364202384F8413065
:10527000002384F8423084F840300120E3E710B581
:10528000044600284AD090F8413003F0FF021BB9D1
:1052900080F84020FCF7E8F8242384F841302368A4
:1052A0001A6822F001021A60626822F070621A61C4
:1052B0009A6822F400429A60D4E90221012924D19B
:1052C00042F400429A605A68002042F0007242F4B0
:1052D00000425A60DA6822F40042DA60D4E904211C
:1052E0000A43A16942EA0122DA60D4E907210A43AC
:1052F0001A601A6842F001021A602023606484F880
:105300004130206384F8420010BD42F40442022977
:105310009A60D8D14FF400625A60D4E70120F3E7D5
:1053200010B5044698B10268242380F84130136810
:1053300023F001031360FCF7DBF80020606484F8BD
:10534000400084F84100206384F8420010BD012031
:10535000FCE700002DE9F74F994690F841300446EC
:105360000F46202B1646BDF834A0DDF8388040F0FB
:10537000C6800C9B13B1BAF1000F06D14FF4007335
:105380006364012003B0BDE8F08F90F84030012B3A
:1053900000F0B5804FF0010B80F840B0FFF750FAF5
:1053A0001923054600905A464FF400412046FFF766
:1053B00017FF0028E5D121235FFA89F2394660639F
:1053C00084F84130402384F842300C9B60642046CE
:1053D00063624C4BA4F82AA000934FF08073FFF750
:1053E00041FE2A4641462046FFF7D3FE18BBB9F1DD
:1053F000010F236815D1F6B20022802120469E625B
:1054000043460095FFF7ECFEA8B9638D9BB2FF2BD6
:1054100015D8628D4FF00073009092B22285D2B2FF
:1054200012E0320A414620469A622A46FFF7B1FE50
:1054300008B92368DFE7002384F84030A1E7FF22A2
:105440004FF080730090228539462046FFF70AFE10
:105450002A4641462046FFF79CFE002891D1636A08
:10546000226813F8011B91626362638D228D013BF8
:10547000013A9BB292B26385638D22859BB2B3B130
:10548000AAB94346802120460095FFF7A9FE0028CF
:105490007FF477AF638D9BB2FF2B28D9FF224FF0AB
:1054A00080730090228539462046FFF7DBFD638D2F
:1054B0009BB2002BCCD12A4641462046FFF7BAFECC
:1054C00000287FF45EAF23682021D9615A6822F05A
:1054D000FF7222F48B3222F4FF7222F001025A6032
:1054E00084F8411084F8400084F842004AE7628D55
:1054F0004FF00073009092B22285D2B2D3E702201F
:1055000040E700BF002000802DE9F74F994690F852
:10551000413004460F46202B1646BDF834A0DDF876
:10552000388040F0C9800C9B13B1BAF1000F06D14E
:105530004FF400736364012003B0BDE8F08F90F86E
:105540004030012B00F0B8804FF0010B80F840B0E4
:10555000FFF776F91923054600905A464FF40041AB
:105560002046FFF73DFE0028E5D122235FFA89F2AD
:105570003946606384F84130402384F842300C9B04
:10558000606463624D4BA4F82AA000930346204652
:10559000FFF768FD2A4641462046FFF7FAFD20BB8B
:1055A000B9F1010F236816D1F6B20022402120463E
:1055B0009E6243460095FFF713FEB0B9638D9BB220
:1055C000FF2B3F4B15D8628D00934FF0007392B2C2
:1055D0002285D2B212E0320A414620469A622A4619
:1055E000FFF7D7FD08B92368DEE7002384F84030D1
:1055F000A1E7FF2200934FF08073228539462046B1
:10560000FFF730FD43460022042120460095FFF7B6
:10561000E7FD00288FD123685A6A636A1A70636AAB
:10562000228D0133013A6362638D92B2013B228580
:105630009BB26385638D9BB2B3B1AAB94346802107
:1056400020460095FFF7CCFD00287FF474AF638DF2
:105650009BB2FF2B28D9FF224FF080730090228548
:1056600039462046FFF7FEFC638D9BB2002BC9D163
:105670002A4641462046FFF7DDFD00287FF45BAF58
:1056800023682021D9615A6822F0FF7222F48B32FC
:1056900022F4FF7222F001025A6084F8411084F86B
:1056A000400084F8420047E7628D4FF0007300909D
:1056B00092B22285D2B2D3E702203DE700200080DB
:1056C0000024008010B590F84130202BDCB21DD1B1
:1056D00090F84030012B19D0242380F84130036822
:1056E0001A6822F001021A601A6822F480521A60C5
:1056F0001A68114319601A6842F001021A60002307
:1057000080F8414080F84030184610BD0220FCE788
:1057100010B590F84130202BDCB21CD190F840300D
:10572000012B18D0242380F8413003681A6822F036
:1057300001021A601A6822F4706242EA01211960BB
:105740001A6842F001021A60002380F8414080F894
:105750004030184610BD0220FCE7D2010068D1F8A5
:1057600000C0843283182DE9F043C6680CF10107AC
:105770005D684FF0000E4C68C6F30B4605F47045AB
:10578000D1F8189026445D60C568C5F30B453D44CB
:1057900045EA0645CE685D60C568C5F30A052E4436
:1057A0009D6805F470459D608D68C7680135C7F335
:1057B0000A073D4445EA06450E699D601D6925F0CE
:1057C00007051D611E619D6991F8327091F8318065
:1057D000C3F818E091F8305045EA096545EA082514
:1057E00045EA07459D615D6925F0FF055D614D69ED
:1057F0005D61DD6925F4E06525F00705DD61D1E92E
:1058000007573D43DD619D6A4D6AC3F828E09D62FC
:105810001EB3012E23D0B51E022D22D9072E0CBF98
:1058200002250125DE6AA4EB0C0406F0E0266C4399
:10583000DE6203348E6AC96A6E4344EA0644DC625F
:105840001C6B24F4FF6424F007041C631963835861
:1058500043F001038350BDE8F0830425E2E703250C
:10586000E0E70225DEE7000038B50446002863D0F3
:1058700090F8A13003F0FF021BB980F8A020FBF7DD
:1058800053FE022384F8A13023689A6922F0704203
:105890009A619969D4E901200243E06802432069D2
:1058A000024360690A4325499A619A680A409A60EE
:1058B0009A6842EA0042A0690243E0699A60DA68A5
:1058C0000A40DA60DA6842EA0042206A0243606A0B
:1058D000DA601A690A401A611A6942EA0042A06A4B
:1058E00002431A615A6911405961E16A5A6942EAF0
:1058F0000142216B0A435A61D96A94F8360001F0DB
:105900007F4194F83550D962D96A94F834200A431B
:1059100042EA052242EA00420020DA625A6B42F073
:1059200006025A639A6942F001029A610123C4F89F
:10593000A40084F8A13038BD0120FCE700F800F095
:1059400070477047036870B59E6B04465D6B7207C5
:1059500014D5690712D55A6B22F004025A63042247
:10596000DA63D0F8A43043F00103C0F8A430002378
:1059700080F8A12080F8A030FFF7E2FFB20716D52B
:10598000AB0714D5236820465A6B22F002025A63F3
:105990000222DA63D4F8A4301343C4F8A4300423F9
:1059A00084F8A130002384F8A030FFF7C9FFF00786
:1059B00010D5E9070ED5236820465A6B22F0010264
:1059C0005A630122DA63002384F8A12084F8A0300E
:1059D000FDF77CFC320711D52B070FD52368204635
:1059E0005A6B22F008025A630822DA63012384F812
:1059F000A130002384F8A030FFF7A3FF70BD2DE98C
:105A0000F04190F8A03006460F469446012B4FF027
:105A100002001FD034244FF001080D4686F8A10083
:105A200004FB026486F8A08038340FCD0FC40FCD7C
:105A30000FC40FCD0FC42B68304662463946236031
:105A4000FFF78BFE33680020C3F8248086F8A1801E
:105A500086F8A000BDE8F08190F8A030012B4FF04F
:105A6000020312D080F8A13003685A6B22F00102C1
:105A70005A63074A11645A6B42F001025A630123C8
:105A800080F8A130002380F8A0301846704700BF8E
:105A900000680140194B37B51A6C194C42F080521E
:105AA0001A641B6C03F080530193019B236843F439
:105AB00080332360FEF7C4FE05466368DA030CD525
:105AC00023680F4D43F400332360FEF7B9FE04460C
:105AD0006B689B030AD5002006E0FEF7B1FE401B71
